{
  "contractName": "Certificates",
  "abi": [
    {
      "inputs": [
        {
          "internalType": "uint256",
          "name": "_cllg_id",
          "type": "uint256"
        },
        {
          "internalType": "uint256",
          "name": "_stu_id",
          "type": "uint256"
        },
        {
          "internalType": "uint256",
          "name": "_studentaadhar",
          "type": "uint256"
        },
        {
          "internalType": "string",
          "name": "_hash",
          "type": "string"
        },
        {
          "internalType": "string",
          "name": "_name",
          "type": "string"
        }
      ],
      "name": "addCertificate",
      "outputs": [],
      "stateMutability": "nonpayable",
      "type": "function"
    },
    {
      "inputs": [
        {
          "internalType": "string",
          "name": "_clg_name",
          "type": "string"
        }
      ],
      "name": "addCollege",
      "outputs": [],
      "stateMutability": "nonpayable",
      "type": "function"
    },
    {
      "inputs": [
        {
          "internalType": "uint256",
          "name": "_cllg_id",
          "type": "uint256"
        },
        {
          "internalType": "uint256",
          "name": "_aadhar",
          "type": "uint256"
        },
        {
          "internalType": "string",
          "name": "_name",
          "type": "string"
        }
      ],
      "name": "addStudent",
      "outputs": [],
      "stateMutability": "nonpayable",
      "type": "function"
    },
    {
      "inputs": [],
      "stateMutability": "nonpayable",
      "type": "constructor"
    },
    {
      "anonymous": false,
      "inputs": [
        {
          "indexed": true,
          "internalType": "uint256",
          "name": "cert_id",
          "type": "uint256"
        },
        {
          "indexed": true,
          "internalType": "uint256",
          "name": "clg_id",
          "type": "uint256"
        },
        {
          "indexed": true,
          "internalType": "uint256",
          "name": "stu_id",
          "type": "uint256"
        },
        {
          "indexed": false,
          "internalType": "uint256",
          "name": "times",
          "type": "uint256"
        }
      ],
      "name": "certAdded",
      "type": "event"
    },
    {
      "anonymous": false,
      "inputs": [
        {
          "indexed": true,
          "internalType": "uint256",
          "name": "clg_id",
          "type": "uint256"
        },
        {
          "indexed": false,
          "internalType": "string",
          "name": "clg_name",
          "type": "string"
        },
        {
          "indexed": false,
          "internalType": "uint256",
          "name": "times",
          "type": "uint256"
        }
      ],
      "name": "clgAdded",
      "type": "event"
    },
    {
      "anonymous": false,
      "inputs": [
        {
          "indexed": true,
          "internalType": "uint256",
          "name": "clg_id",
          "type": "uint256"
        },
        {
          "indexed": false,
          "internalType": "bool",
          "name": "isReg",
          "type": "bool"
        },
        {
          "indexed": false,
          "internalType": "uint256",
          "name": "times",
          "type": "uint256"
        }
      ],
      "name": "clgRegistered",
      "type": "event"
    },
    {
      "inputs": [
        {
          "internalType": "uint256",
          "name": "_clg_id",
          "type": "uint256"
        },
        {
          "internalType": "bool",
          "name": "_reg",
          "type": "bool"
        }
      ],
      "name": "registerCollege",
      "outputs": [],
      "stateMutability": "nonpayable",
      "type": "function"
    },
    {
      "anonymous": false,
      "inputs": [
        {
          "indexed": true,
          "internalType": "uint256",
          "name": "stu_id",
          "type": "uint256"
        },
        {
          "indexed": true,
          "internalType": "uint256",
          "name": "aadhar",
          "type": "uint256"
        },
        {
          "indexed": false,
          "internalType": "string",
          "name": "stu_name",
          "type": "string"
        },
        {
          "indexed": true,
          "internalType": "uint256",
          "name": "clg_id",
          "type": "uint256"
        },
        {
          "indexed": false,
          "internalType": "uint256",
          "name": "times",
          "type": "uint256"
        }
      ],
      "name": "stuAdded",
      "type": "event"
    },
    {
      "inputs": [],
      "name": "certificatecnt",
      "outputs": [
        {
          "internalType": "uint256",
          "name": "",
          "type": "uint256"
        }
      ],
      "stateMutability": "view",
      "type": "function"
    },
    {
      "inputs": [
        {
          "internalType": "uint256",
          "name": "",
          "type": "uint256"
        }
      ],
      "name": "certy",
      "outputs": [
        {
          "internalType": "uint256",
          "name": "cert_id",
          "type": "uint256"
        },
        {
          "internalType": "uint256",
          "name": "college_id",
          "type": "uint256"
        },
        {
          "internalType": "uint256",
          "name": "stu_id",
          "type": "uint256"
        },
        {
          "internalType": "string",
          "name": "cert_name",
          "type": "string"
        },
        {
          "internalType": "uint256",
          "name": "student_aadhar",
          "type": "uint256"
        },
        {
          "internalType": "string",
          "name": "ipfs_hash",
          "type": "string"
        },
        {
          "internalType": "uint256",
          "name": "time",
          "type": "uint256"
        }
      ],
      "stateMutability": "view",
      "type": "function"
    },
    {
      "inputs": [
        {
          "internalType": "uint256",
          "name": "",
          "type": "uint256"
        }
      ],
      "name": "colId",
      "outputs": [
        {
          "internalType": "address",
          "name": "",
          "type": "address"
        }
      ],
      "stateMutability": "view",
      "type": "function"
    },
    {
      "inputs": [],
      "name": "collegecnt",
      "outputs": [
        {
          "internalType": "uint256",
          "name": "",
          "type": "uint256"
        }
      ],
      "stateMutability": "view",
      "type": "function"
    },
    {
      "inputs": [
        {
          "internalType": "address",
          "name": "",
          "type": "address"
        }
      ],
      "name": "colleges",
      "outputs": [
        {
          "internalType": "uint256",
          "name": "clg_id",
          "type": "uint256"
        },
        {
          "internalType": "address",
          "name": "clg_address",
          "type": "address"
        },
        {
          "internalType": "string",
          "name": "clg_name",
          "type": "string"
        },
        {
          "internalType": "bool",
          "name": "isregistered",
          "type": "bool"
        }
      ],
      "stateMutability": "view",
      "type": "function"
    },
    {
      "inputs": [
        {
          "internalType": "address",
          "name": "_addr",
          "type": "address"
        }
      ],
      "name": "getClgStu",
      "outputs": [
        {
          "internalType": "uint256[]",
          "name": "",
          "type": "uint256[]"
        }
      ],
      "stateMutability": "view",
      "type": "function"
    },
    {
      "inputs": [
        {
          "internalType": "uint256",
          "name": "_aadhar",
          "type": "uint256"
        }
      ],
      "name": "getStuCert",
      "outputs": [
        {
          "internalType": "uint256[]",
          "name": "",
          "type": "uint256[]"
        }
      ],
      "stateMutability": "view",
      "type": "function"
    },
    {
      "inputs": [],
      "name": "owner",
      "outputs": [
        {
          "internalType": "address",
          "name": "",
          "type": "address"
        }
      ],
      "stateMutability": "view",
      "type": "function"
    },
    {
      "inputs": [],
      "name": "studentcnt",
      "outputs": [
        {
          "internalType": "uint256",
          "name": "",
          "type": "uint256"
        }
      ],
      "stateMutability": "view",
      "type": "function"
    },
    {
      "inputs": [
        {
          "internalType": "uint256",
          "name": "",
          "type": "uint256"
        }
      ],
      "name": "students",
      "outputs": [
        {
          "internalType": "uint256",
          "name": "stu_aadhar_no",
          "type": "uint256"
        },
        {
          "internalType": "uint256",
          "name": "stu_id",
          "type": "uint256"
        },
        {
          "internalType": "string",
          "name": "stu_name",
          "type": "string"
        },
        {
          "internalType": "uint256",
          "name": "cllg_id",
          "type": "uint256"
        },
        {
          "internalType": "uint256",
          "name": "certcount",
          "type": "uint256"
        }
      ],
      "stateMutability": "view",
      "type": "function"
    },
    {
      "inputs": [
        {
          "internalType": "uint256",
          "name": "",
          "type": "uint256"
        }
      ],
      "name": "stuId",
      "outputs": [
        {
          "internalType": "uint256",
          "name": "",
          "type": "uint256"
        }
      ],
      "stateMutability": "view",
      "type": "function"
    }
  ],
  "bytecode": "0x608060405260006001556000600255600060035534801561001f57600080fd5b5060006100306100d360201b60201c565b9050806000806101000a81548173ffffffffffffffffffffffffffffffffffffffff021916908373ffffffffffffffffffffffffffffffffffffffff1602179055508073ffffffffffffffffffffffffffffffffffffffff16600073ffffffffffffffffffffffffffffffffffffffff167f8be0079c531659141344cd1fd0a4f28419497f9722a3daafe3b4186f6b6457e060405160405180910390a3506100db565b600033905090565b611d41806100ea6000396000f3fe608060405234801561001057600080fd5b506004361061010a5760003560e01c8063715018a6116100a2578063cd7e3c5f11610071578063cd7e3c5f146102ad578063ea501949146102cb578063f2fde38b146102fe578063fb75bf371461031a578063fd6a297c1461034a5761010a565b8063715018a61461023957806383c197b2146102435780638da5cb5b1461025f578063c876f9da1461027d5761010a565b806340a1c635116100de57806340a1c635146101ad5780634f43ddfa146101e357806358e64a7e146101ff578063659d73231461021d5761010a565b8062a22b501461010f57806306ead22e1461012b578063139035491461015f578063270b1d8f1461018f575b600080fd5b61012960048036038101906101249190611671565b61037a565b005b610145600480360381019061014091906115a5565b610521565b604051610156959493929190611aa6565b60405180910390f35b610179600480360381019061017491906115a5565b6105ef565b6040516101869190611929565b60405180910390f35b610197610622565b6040516101a49190611a3f565b60405180910390f35b6101c760048036038101906101c291906115a5565b610628565b6040516101da9796959493929190611b00565b60405180910390f35b6101fd60048036038101906101f89190611564565b61079a565b005b610207610a99565b6040516102149190611a3f565b60405180910390f35b6102376004803603810190610232919061160a565b610a9f565b005b610241610d3d565b005b61025d600480360381019061025891906115ce565b610e92565b005b610267610ff3565b6040516102749190611929565b60405180910390f35b610297600480360381019061029291906115a5565b61101c565b6040516102a49190611a3f565b60405180910390f35b6102b5611034565b6040516102c29190611a3f565b60405180910390f35b6102e560048036038101906102e0919061153b565b61103a565b6040516102f59493929190611a5a565b60405180910390f35b6103186004803603810190610313919061153b565b61112f565b005b610334600480360381019061032f919061153b565b6112f3565b6040516103419190611944565b60405180910390f35b610364600480360381019061035f91906115a5565b61138d565b6040516103719190611944565b60405180910390f35b6003600081548092919060010191905055506003546008600060035481526020019081526020016000206000018190555083600860006003548152602001908152602001600020600201819055508460086000600354815260200190815260200160002060010181905550806008600060035481526020019081526020016000206003019080519060200190610411929190611403565b50826008600060035481526020019081526020016000206004018190555081600860006003548152602001908152602001600020600501908051906020019061045b929190611403565b504260086000600354815260200190815260200160002060060181905550600660008481526020019081526020016000206005016003549080600181540180825580915050600190039060005260206000200160009091909190915055600660008481526020019081526020016000206004016000815480929190600101919050555083856003547f8e708b4b0440cce47aaac9d9461d1cea9e95210a644dcf3d23154f6d345f04fc426040516105129190611a3f565b60405180910390a45050505050565b6006602052806000526040600020600091509050806000015490806001015490806002018054600181600116156101000203166002900480601f0160208091040260200160405190810160405280929190818152602001828054600181600116156101000203166002900480156105d95780601f106105ae576101008083540402835291602001916105d9565b820191906000526020600020905b8154815290600101906020018083116105bc57829003601f168201915b5050505050908060030154908060040154905085565b60056020528060005260406000206000915054906101000a900473ffffffffffffffffffffffffffffffffffffffff1681565b60025481565b6008602052806000526040600020600091509050806000015490806001015490806002015490806003018054600181600116156101000203166002900480601f0160208091040260200160405190810160405280929190818152602001828054600181600116156101000203166002900480156106e65780601f106106bb576101008083540402835291602001916106e6565b820191906000526020600020905b8154815290600101906020018083116106c957829003601f168201915b505050505090806004015490806005018054600181600116156101000203166002900480601f01602080910402602001604051908101604052809291908181526020018280546001816001161561010002031660029004801561078a5780601f1061075f5761010080835404028352916020019161078a565b820191906000526020600020905b81548152906001019060200180831161076d57829003601f168201915b5050505050908060060154905087565b336000600190506000600190505b600154811161082e578273ffffffffffffffffffffffffffffffffffffffff166005600083815260200190815260200160002060009054906101000a900473ffffffffffffffffffffffffffffffffffffffff1673ffffffffffffffffffffffffffffffffffffffff161415610821576000915061082e565b80806001019150506107a8565b506001151581151514610876576040517f08c379a000000000000000000000000000000000000000000000000000000000815260040161086d906119ff565b60405180910390fd5b6001600081548092919060010191905055503360056000600154815260200190815260200160002060006101000a81548173ffffffffffffffffffffffffffffffffffffffff021916908373ffffffffffffffffffffffffffffffffffffffff160217905550600154600460003373ffffffffffffffffffffffffffffffffffffffff1673ffffffffffffffffffffffffffffffffffffffff1681526020019081526020016000206000018190555082600460003373ffffffffffffffffffffffffffffffffffffffff1673ffffffffffffffffffffffffffffffffffffffff168152602001908152602001600020600201908051906020019061097b929190611403565b5033600460003373ffffffffffffffffffffffffffffffffffffffff1673ffffffffffffffffffffffffffffffffffffffff16815260200190815260200160002060010160006101000a81548173ffffffffffffffffffffffffffffffffffffffff021916908373ffffffffffffffffffffffffffffffffffffffff1602179055506000600460003373ffffffffffffffffffffffffffffffffffffffff1673ffffffffffffffffffffffffffffffffffffffff16815260200190815260200160002060030160006101000a81548160ff0219169083151502179055506001547f13da3589592419ec75e6c626017d735d3f406749d14b0e693f2651540ccb1e268442604051610a8c92919061198f565b60405180910390a2505050565b60035481565b3360011515600460008373ffffffffffffffffffffffffffffffffffffffff1673ffffffffffffffffffffffffffffffffffffffff16815260200190815260200160002060030160009054906101000a900460ff16151514610b36576040517f08c379a0000000000000000000000000000000000000000000000000000000008152600401610b2d906119bf565b60405180910390fd5b826000600190506000600190505b6002548111610b7e578260076000838152602001908152602001600020541415610b715760009150610b7e565b8080600101915050610b44565b506001151581151514610bc6576040517f08c379a0000000000000000000000000000000000000000000000000000000008152600401610bbd906119ff565b60405180910390fd5b600260008154809291906001019190505550846007600060025481526020019081526020016000208190555084600660008781526020019081526020016000206000018190555083600660008781526020019081526020016000206002019080519060200190610c37929190611403565b50600254600660008781526020019081526020016000206001018190555085600660008781526020019081526020016000206003018190555060006006600087815260200190815260200160002060040181905550600460003373ffffffffffffffffffffffffffffffffffffffff1673ffffffffffffffffffffffffffffffffffffffff168152602001908152602001600020600401600254908060018154018082558091505060019003906000526020600020016000909190919091505585856002547f94ea70f6cf7904a543223c877dcbb05e3191c47bd9c646d24b9f658ebf1ceb6a8742604051610d2d92919061198f565b60405180910390a4505050505050565b610d456113fb565b73ffffffffffffffffffffffffffffffffffffffff166000809054906101000a900473ffffffffffffffffffffffffffffffffffffffff1673ffffffffffffffffffffffffffffffffffffffff1614610dd3576040517f08c379a0000000000000000000000000000000000000000000000000000000008152600401610dca90611a1f565b60405180910390fd5b600073ffffffffffffffffffffffffffffffffffffffff166000809054906101000a900473ffffffffffffffffffffffffffffffffffffffff1673ffffffffffffffffffffffffffffffffffffffff167f8be0079c531659141344cd1fd0a4f28419497f9722a3daafe3b4186f6b6457e060405160405180910390a360008060006101000a81548173ffffffffffffffffffffffffffffffffffffffff021916908373ffffffffffffffffffffffffffffffffffffffff160217905550565b610e9a6113fb565b73ffffffffffffffffffffffffffffffffffffffff166000809054906101000a900473ffffffffffffffffffffffffffffffffffffffff1673ffffffffffffffffffffffffffffffffffffffff1614610f28576040517f08c379a0000000000000000000000000000000000000000000000000000000008152600401610f1f90611a1f565b60405180910390fd5b80600460006005600086815260200190815260200160002060009054906101000a900473ffffffffffffffffffffffffffffffffffffffff1673ffffffffffffffffffffffffffffffffffffffff1673ffffffffffffffffffffffffffffffffffffffff16815260200190815260200160002060030160006101000a81548160ff021916908315150217905550817f0662994033696b883067373bd9f985f54a99a734193a406bb822e1e9e1699d2b8242604051610fe7929190611966565b60405180910390a25050565b60008060009054906101000a900473ffffffffffffffffffffffffffffffffffffffff16905090565b60076020528060005260406000206000915090505481565b60015481565b60046020528060005260406000206000915090508060000154908060010160009054906101000a900473ffffffffffffffffffffffffffffffffffffffff1690806002018054600181600116156101000203166002900480601f0160208091040260200160405190810160405280929190818152602001828054600181600116156101000203166002900480156111125780601f106110e757610100808354040283529160200191611112565b820191906000526020600020905b8154815290600101906020018083116110f557829003601f168201915b5050505050908060030160009054906101000a900460ff16905084565b6111376113fb565b73ffffffffffffffffffffffffffffffffffffffff166000809054906101000a900473ffffffffffffffffffffffffffffffffffffffff1673ffffffffffffffffffffffffffffffffffffffff16146111c5576040517f08c379a00000000000000000000000000000000000000000000000000000000081526004016111bc90611a1f565b60405180910390fd5b600073ffffffffffffffffffffffffffffffffffffffff168173ffffffffffffffffffffffffffffffffffffffff161415611235576040517f08c379a000000000000000000000000000000000000000000000000000000000815260040161122c906119df565b60405180910390fd5b8073ffffffffffffffffffffffffffffffffffffffff166000809054906101000a900473ffffffffffffffffffffffffffffffffffffffff1673ffffffffffffffffffffffffffffffffffffffff167f8be0079c531659141344cd1fd0a4f28419497f9722a3daafe3b4186f6b6457e060405160405180910390a3806000806101000a81548173ffffffffffffffffffffffffffffffffffffffff021916908373ffffffffffffffffffffffffffffffffffffffff16021790555050565b6060600460008373ffffffffffffffffffffffffffffffffffffffff1673ffffffffffffffffffffffffffffffffffffffff16815260200190815260200160002060040180548060200260200160405190810160405280929190818152602001828054801561138157602002820191906000526020600020905b81548152602001906001019080831161136d575b50505050509050919050565b6060600660008381526020019081526020016000206005018054806020026020016040519081016040528092919081815260200182805480156113ef57602002820191906000526020600020905b8154815260200190600101908083116113db575b50505050509050919050565b600033905090565b828054600181600116156101000203166002900490600052602060002090601f016020900481019282601f1061144457805160ff1916838001178555611472565b82800160010185558215611472579182015b82811115611471578251825591602001919060010190611456565b5b50905061147f9190611483565b5090565b6114a591905b808211156114a1576000816000905550600101611489565b5090565b90565b6000813590506114b781611cc6565b92915050565b6000813590506114cc81611cdd565b92915050565b600082601f8301126114e357600080fd5b81356114f66114f182611baa565b611b7d565b9150808252602083016020830185838301111561151257600080fd5b61151d838284611c73565b50505092915050565b60008135905061153581611cf4565b92915050565b60006020828403121561154d57600080fd5b600061155b848285016114a8565b91505092915050565b60006020828403121561157657600080fd5b600082013567ffffffffffffffff81111561159057600080fd5b61159c848285016114d2565b91505092915050565b6000602082840312156115b757600080fd5b60006115c584828501611526565b91505092915050565b600080604083850312156115e157600080fd5b60006115ef85828601611526565b9250506020611600858286016114bd565b9150509250929050565b60008060006060848603121561161f57600080fd5b600061162d86828701611526565b935050602061163e86828701611526565b925050604084013567ffffffffffffffff81111561165b57600080fd5b611667868287016114d2565b9150509250925092565b600080600080600060a0868803121561168957600080fd5b600061169788828901611526565b95505060206116a888828901611526565b94505060406116b988828901611526565b935050606086013567ffffffffffffffff8111156116d657600080fd5b6116e2888289016114d2565b925050608086013567ffffffffffffffff8111156116ff57600080fd5b61170b888289016114d2565b9150509295509295909350565b6000611724838361190b565b60208301905092915050565b61173981611c2b565b82525050565b600061174a82611be6565b6117548185611c09565b935061175f83611bd6565b8060005b838110156117905781516117778882611718565b975061178283611bfc565b925050600181019050611763565b5085935050505092915050565b6117a681611c3d565b82525050565b60006117b782611bf1565b6117c18185611c1a565b93506117d1818560208601611c82565b6117da81611cb5565b840191505092915050565b60006117f2600e83611c1a565b91507f4e6f7420726567697374657265640000000000000000000000000000000000006000830152602082019050919050565b6000611832602683611c1a565b91507f4f776e61626c653a206e6577206f776e657220697320746865207a65726f206160008301527f64647265737300000000000000000000000000000000000000000000000000006020830152604082019050919050565b6000611898600e83611c1a565b91507f616c7265616479206578697374730000000000000000000000000000000000006000830152602082019050919050565b60006118d8602083611c1a565b91507f4f776e61626c653a2063616c6c6572206973206e6f7420746865206f776e65726000830152602082019050919050565b61191481611c69565b82525050565b61192381611c69565b82525050565b600060208201905061193e6000830184611730565b92915050565b6000602082019050818103600083015261195e818461173f565b905092915050565b600060408201905061197b600083018561179d565b611988602083018461191a565b9392505050565b600060408201905081810360008301526119a981856117ac565b90506119b8602083018461191a565b9392505050565b600060208201905081810360008301526119d8816117e5565b9050919050565b600060208201905081810360008301526119f881611825565b9050919050565b60006020820190508181036000830152611a188161188b565b9050919050565b60006020820190508181036000830152611a38816118cb565b9050919050565b6000602082019050611a54600083018461191a565b92915050565b6000608082019050611a6f600083018761191a565b611a7c6020830186611730565b8181036040830152611a8e81856117ac565b9050611a9d606083018461179d565b95945050505050565b600060a082019050611abb600083018861191a565b611ac8602083018761191a565b8181036040830152611ada81866117ac565b9050611ae9606083018561191a565b611af6608083018461191a565b9695505050505050565b600060e082019050611b15600083018a61191a565b611b22602083018961191a565b611b2f604083018861191a565b8181036060830152611b4181876117ac565b9050611b50608083018661191a565b81810360a0830152611b6281856117ac565b9050611b7160c083018461191a565b98975050505050505050565b6000604051905081810181811067ffffffffffffffff82111715611ba057600080fd5b8060405250919050565b600067ffffffffffffffff821115611bc157600080fd5b601f19601f8301169050602081019050919050565b6000819050602082019050919050565b600081519050919050565b600081519050919050565b6000602082019050919050565b600082825260208201905092915050565b600082825260208201905092915050565b6000611c3682611c49565b9050919050565b60008115159050919050565b600073ffffffffffffffffffffffffffffffffffffffff82169050919050565b6000819050919050565b82818337600083830152505050565b60005b83811015611ca0578082015181840152602081019050611c85565b83811115611caf576000848401525b50505050565b6000601f19601f8301169050919050565b611ccf81611c2b565b8114611cda57600080fd5b50565b611ce681611c3d565b8114611cf157600080fd5b50565b611cfd81611c69565b8114611d0857600080fd5b5056fea26469706673582212209a2b7a900c177abc8b4278cb90c1d6adcbcfedb1f5e250346b1d59e8e90ea44764736f6c63430006080033",
  "immutableReferences": {},
  "source": "pragma solidity ^0.6.0;\r\npragma experimental ABIEncoderV2;\r\n\r\n// import \"https://github.com/OpenZeppelin/openzeppelin-contracts/contracts/access/Ownable.sol\";\r\n// import \"https://github.com/OpenZeppelin/openzeppelin-contracts/contracts/utils/Pausable.sol\";\r\nimport \"@openzeppelin/contracts/utils/Pausable.sol\";\r\nimport \"@openzeppelin/contracts/access/Ownable.sol\";\r\n\r\n\r\ncontract Certificates is Ownable{\r\n    \r\n    uint256 public collegecnt = 0;\r\n    uint256 public studentcnt = 0;\r\n    uint256 public certificatecnt = 0;\r\n    \r\n    event clgAdded(uint indexed clg_id,string clg_name,uint times);\r\n    event clgRegistered(uint indexed clg_id,bool isReg,uint times);\r\n    event stuAdded(uint indexed stu_id,uint indexed aadhar,string stu_name,uint indexed clg_id,uint times);\r\n    event certAdded(uint indexed cert_id,uint indexed clg_id,uint indexed stu_id,uint times);\r\n    \r\n    struct College{\r\n        uint clg_id;\r\n        address clg_address;\r\n        string clg_name;\r\n        bool isregistered;\r\n        uint[] clg_student;\r\n    }\r\n    \r\n    struct Cert{\r\n        uint cert_id;\r\n        uint college_id;\r\n        uint stu_id;\r\n        string cert_name;\r\n        uint student_aadhar;\r\n        string ipfs_hash;\r\n        uint time;\r\n    }\r\n    \r\n    struct Student{\r\n        uint stu_aadhar_no;\r\n        uint stu_id;\r\n        string stu_name;\r\n        uint cllg_id;\r\n        uint certcount;\r\n        uint[] certs;\r\n\r\n    } \r\n    \r\n    \r\n    mapping(address=>College) public colleges;\r\n    mapping(uint=>address) public colId;\r\n    \r\n    mapping(uint=>Student) public students;\r\n    mapping(uint=>uint) public stuId;\r\n    \r\n    mapping(uint => Cert) public certy;\r\n    \r\n    \r\n     modifier onlyRegisteredCollege(address _addr){\r\n        require(colleges[_addr].isregistered == true,\"Not registered\");\r\n        _;\r\n    } \r\n    \r\n    modifier uniqueclg(address _addr){\r\n        bool unique = true;\r\n        for(uint i=1;i<=collegecnt;i++){\r\n            if(colId[i] == _addr){\r\n                unique = false;\r\n                break;\r\n            }\r\n        \r\n        }\r\n        require(unique == true,\"already exists\");\r\n        _;\r\n        \r\n    }\r\n    \r\n    modifier uniquestudent(uint _aadhar){\r\n        bool unique = true;\r\n        for(uint i=1;i<=studentcnt;i++){\r\n            if(stuId[i] == _aadhar){\r\n                unique = false;\r\n                break;\r\n            }\r\n        \r\n        }\r\n        require(unique == true,\"already exists\");\r\n        _;\r\n        \r\n    }\r\n    \r\n    function addCollege(string memory _clg_name)public uniqueclg(msg.sender){\r\n        collegecnt++;\r\n        colId[collegecnt] = msg.sender;\r\n        colleges[msg.sender].clg_id = collegecnt;\r\n        colleges[msg.sender].clg_name = _clg_name;\r\n        colleges[msg.sender].clg_address = msg.sender;\r\n        colleges[msg.sender].isregistered = false;\r\n        emit clgAdded(collegecnt,_clg_name,now);\r\n        \r\n    }\r\n    \r\n    function registerCollege(uint _clg_id,bool _reg)public onlyOwner{\r\n       colleges[colId[_clg_id]].isregistered = _reg;\r\n       emit clgRegistered(_clg_id,_reg,now);\r\n    }\r\n    \r\n    function addStudent(uint _cllg_id,uint _aadhar,string memory _name)public onlyRegisteredCollege(msg.sender) uniquestudent(_aadhar){\r\n        studentcnt++;\r\n        stuId[studentcnt]= _aadhar;\r\n        students[_aadhar].stu_aadhar_no = _aadhar;\r\n        students[_aadhar].stu_name = _name;\r\n        students[_aadhar].stu_id = studentcnt;\r\n        students[_aadhar].cllg_id = _cllg_id;\r\n        students[_aadhar].certcount = 0;\r\n        colleges[msg.sender].clg_student.push(studentcnt);\r\n        emit stuAdded(studentcnt,_aadhar,_name,_cllg_id,now);\r\n    }\r\n    \r\n\r\n    function addCertificate(uint _cllg_id,uint _stu_id,uint _studentaadhar,string memory _hash,string memory _name)public{ \r\n        certificatecnt++;\r\n        certy[certificatecnt].cert_id = certificatecnt;\r\n        certy[certificatecnt].stu_id = _stu_id;\r\n        certy[certificatecnt].college_id = _cllg_id;\r\n        certy[certificatecnt].cert_name = _name;\r\n        certy[certificatecnt].student_aadhar = _studentaadhar;\r\n        certy[certificatecnt].ipfs_hash = _hash;\r\n        certy[certificatecnt].time = now;\r\n        students[_studentaadhar].certs.push(certificatecnt);\r\n        students[_studentaadhar].certcount++;\r\n        emit certAdded(certificatecnt,_cllg_id,_stu_id,now);\r\n        \r\n    }\r\n    \r\n    function getClgStu(address _addr) public view returns(uint[] memory){\r\n        return colleges[_addr].clg_student;\r\n    }\r\n    \r\n    function getStuCert(uint _aadhar) public view returns(uint[] memory){\r\n        return students[_aadhar].certs;\r\n    }\r\n    \r\n    \r\n}",
  "sourcePath": "E:/Github/Certichain/contracts/Certificate.sol",
  "compiler": {
    "name": "solc",
    "version": "0.6.8+commit.0bbfe453.Emscripten.clang"
  },
  "schemaVersion": "3.2.4",
  "updatedAt": "2020-12-31T16:55:40.164Z",
  "networkType": "ethereum",
  "devdoc": {
    "methods": {
      "owner()": {
        "details": "Returns the address of the current owner."
      },
      "renounceOwnership()": {
        "details": "Leaves the contract without owner. It will not be possible to call `onlyOwner` functions anymore. Can only be called by the current owner.      * NOTE: Renouncing ownership will leave the contract without an owner, thereby removing any functionality that is only available to the owner."
      },
      "transferOwnership(address)": {
        "details": "Transfers ownership of the contract to a new account (`newOwner`). Can only be called by the current owner."
      }
    }
  },
  "userdoc": {
    "methods": {}
  }
}